{
  "contractName": "Gym",
  "abi": [
    {
      "inputs": [
        {
          "internalType": "address",
          "name": "owner_",
          "type": "address"
        },
        {
          "internalType": "address",
          "name": "paymentToken_",
          "type": "address"
        },
        {
          "internalType": "uint256",
          "name": "paymentTraining_",
          "type": "uint256"
        },
        {
          "internalType": "uint256",
          "name": "maxClientsPerDay_",
          "type": "uint256"
        }
      ],
      "stateMutability": "nonpayable",
      "type": "constructor"
    },
    {
      "anonymous": false,
      "inputs": [
        {
          "indexed": false,
          "internalType": "address",
          "name": "client",
          "type": "address"
        },
        {
          "indexed": false,
          "internalType": "address",
          "name": "owner",
          "type": "address"
        },
        {
          "indexed": false,
          "internalType": "uint256",
          "name": "day",
          "type": "uint256"
        },
        {
          "indexed": false,
          "internalType": "uint256",
          "name": "amount",
          "type": "uint256"
        }
      ],
      "name": "LogPayment",
      "type": "event"
    },
    {
      "anonymous": false,
      "inputs": [
        {
          "indexed": false,
          "internalType": "address",
          "name": "owner",
          "type": "address"
        },
        {
          "indexed": false,
          "internalType": "uint256",
          "name": "day",
          "type": "uint256"
        }
      ],
      "name": "LogRegisteredUnavailableDay",
      "type": "event"
    },
    {
      "anonymous": false,
      "inputs": [
        {
          "indexed": false,
          "internalType": "address",
          "name": "owner",
          "type": "address"
        },
        {
          "indexed": false,
          "internalType": "uint256",
          "name": "day",
          "type": "uint256"
        }
      ],
      "name": "LogUnregisteredUnavailableDay",
      "type": "event"
    },
    {
      "anonymous": false,
      "inputs": [
        {
          "indexed": false,
          "internalType": "uint256",
          "name": "balance",
          "type": "uint256"
        }
      ],
      "name": "LogWithdrawn",
      "type": "event"
    },
    {
      "inputs": [],
      "name": "maxClientsPerDay",
      "outputs": [
        {
          "internalType": "uint256",
          "name": "",
          "type": "uint256"
        }
      ],
      "stateMutability": "view",
      "type": "function",
      "constant": true
    },
    {
      "inputs": [],
      "name": "owner",
      "outputs": [
        {
          "internalType": "address",
          "name": "",
          "type": "address"
        }
      ],
      "stateMutability": "view",
      "type": "function",
      "constant": true
    },
    {
      "inputs": [],
      "name": "paymentToken",
      "outputs": [
        {
          "internalType": "address",
          "name": "",
          "type": "address"
        }
      ],
      "stateMutability": "view",
      "type": "function",
      "constant": true
    },
    {
      "inputs": [],
      "name": "paymentTraining",
      "outputs": [
        {
          "internalType": "uint256",
          "name": "",
          "type": "uint256"
        }
      ],
      "stateMutability": "view",
      "type": "function",
      "constant": true
    },
    {
      "inputs": [
        {
          "internalType": "uint256",
          "name": "",
          "type": "uint256"
        },
        {
          "internalType": "uint256",
          "name": "",
          "type": "uint256"
        }
      ],
      "name": "trainingDaysMap",
      "outputs": [
        {
          "internalType": "address",
          "name": "",
          "type": "address"
        }
      ],
      "stateMutability": "view",
      "type": "function",
      "constant": true
    },
    {
      "inputs": [
        {
          "internalType": "uint256",
          "name": "",
          "type": "uint256"
        }
      ],
      "name": "unavailableDaysMap",
      "outputs": [
        {
          "internalType": "bool",
          "name": "",
          "type": "bool"
        }
      ],
      "stateMutability": "view",
      "type": "function",
      "constant": true
    },
    {
      "inputs": [
        {
          "internalType": "uint256",
          "name": "dayTimestamp",
          "type": "uint256"
        }
      ],
      "name": "registerUnavailableDay",
      "outputs": [],
      "stateMutability": "nonpayable",
      "type": "function"
    },
    {
      "inputs": [
        {
          "internalType": "uint256",
          "name": "dayTimestamp",
          "type": "uint256"
        }
      ],
      "name": "unregisterUnavailableDay",
      "outputs": [],
      "stateMutability": "nonpayable",
      "type": "function"
    },
    {
      "inputs": [
        {
          "internalType": "uint256",
          "name": "dayTimestamp",
          "type": "uint256"
        }
      ],
      "name": "pay",
      "outputs": [],
      "stateMutability": "nonpayable",
      "type": "function"
    },
    {
      "inputs": [],
      "name": "withdraw",
      "outputs": [],
      "stateMutability": "nonpayable",
      "type": "function"
    },
    {
      "inputs": [
        {
          "internalType": "address",
          "name": "client",
          "type": "address"
        }
      ],
      "name": "canTrainToday",
      "outputs": [
        {
          "internalType": "bool",
          "name": "",
          "type": "bool"
        }
      ],
      "stateMutability": "view",
      "type": "function",
      "constant": true
    },
    {
      "inputs": [
        {
          "internalType": "address",
          "name": "client",
          "type": "address"
        },
        {
          "internalType": "uint256",
          "name": "timestamp",
          "type": "uint256"
        }
      ],
      "name": "canTrainAtDate",
      "outputs": [
        {
          "internalType": "bool",
          "name": "",
          "type": "bool"
        }
      ],
      "stateMutability": "view",
      "type": "function",
      "constant": true
    }
  ],
  "bytecode": "0x60806040523480156200001157600080fd5b506040516200163e3803806200163e833981810160405281019062000037919062000175565b836000806101000a81548173ffffffffffffffffffffffffffffffffffffffff021916908373ffffffffffffffffffffffffffffffffffffffff16021790555082600160006101000a81548173ffffffffffffffffffffffffffffffffffffffff021916908373ffffffffffffffffffffffffffffffffffffffff160217905550816002819055508060038190555050505050620001e7565b600080fd5b600073ffffffffffffffffffffffffffffffffffffffff82169050919050565b60006200010282620000d5565b9050919050565b6200011481620000f5565b81146200012057600080fd5b50565b600081519050620001348162000109565b92915050565b6000819050919050565b6200014f816200013a565b81146200015b57600080fd5b50565b6000815190506200016f8162000144565b92915050565b60008060008060808587031215620001925762000191620000d0565b5b6000620001a28782880162000123565b9450506020620001b58782880162000123565b9350506040620001c8878288016200015e565b9250506060620001db878288016200015e565b91505092959194509250565b61144780620001f76000396000f3fe608060405234801561001057600080fd5b50600436106100d1576000357c0100000000000000000000000000000000000000000000000000000000900480638de3e1351161008e5780638de3e1351461018657806391cc7bd1146101a4578063bc272971146101d4578063c1c3163c146101f0578063c290d69114610220578063f500de911461023c576100d1565b80633013ce29146100d65780633ccfd60b146100f4578063542b33da146100fe57806357056acd1461012e57806386f3ff721461014c5780638da5cb5b14610168575b600080fd5b6100de61026c565b6040516100eb9190610caf565b60405180910390f35b6100fc610292565b005b61011860048036038101906101139190610cfb565b6104f5565b6040516101259190610d43565b60405180910390f35b610136610508565b6040516101439190610d77565b60405180910390f35b61016660048036038101906101619190610dbe565b61050e565b005b6101706106cc565b60405161017d9190610caf565b60405180910390f35b61018e6106f0565b60405161019b9190610d77565b60405180910390f35b6101be60048036038101906101b99190610deb565b6106f6565b6040516101cb9190610caf565b60405180910390f35b6101ee60048036038101906101e99190610dbe565b610744565b005b61020a60048036038101906102059190610dbe565b6108a8565b6040516102179190610d43565b60405180910390f35b61023a60048036038101906102359190610dbe565b6108c8565b005b61025660048036038101906102519190610e2b565b610b52565b6040516102639190610d43565b60405180910390f35b600160009054906101000a900473ffffffffffffffffffffffffffffffffffffffff1681565b60008054906101000a900473ffffffffffffffffffffffffffffffffffffffff1673ffffffffffffffffffffffffffffffffffffffff163373ffffffffffffffffffffffffffffffffffffffff1614610320576040517f08c379a000000000000000000000000000000000000000000000000000000000815260040161031790610ec8565b60405180910390fd5b6000600160009054906101000a900473ffffffffffffffffffffffffffffffffffffffff1673ffffffffffffffffffffffffffffffffffffffff166370a08231306040518263ffffffff167c01000000000000000000000000000000000000000000000000000000000281526004016103999190610caf565b602060405180830381865afa1580156103b6573d6000803e3d6000fd5b505050506040513d601f19601f820116820180604052508101906103da9190610efd565b9050600160009054906101000a900473ffffffffffffffffffffffffffffffffffffffff1673ffffffffffffffffffffffffffffffffffffffff166323b872dd3060008054906101000a900473ffffffffffffffffffffffffffffffffffffffff16846040518463ffffffff167c010000000000000000000000000000000000000000000000000000000002815260040161047793929190610f2a565b6020604051808303816000875af1158015610496573d6000803e3d6000fd5b505050506040513d601f19601f820116820180604052508101906104ba9190610f8d565b507ff174a8805a92c0a4264ff6d59294470842e20eb1f760eb5169994cbf458556b2816040516104ea9190610d77565b60405180910390a150565b60006105014283610b66565b9050919050565b60035481565b60008054906101000a900473ffffffffffffffffffffffffffffffffffffffff1673ffffffffffffffffffffffffffffffffffffffff163373ffffffffffffffffffffffffffffffffffffffff161461059c576040517f08c379a000000000000000000000000000000000000000000000000000000000815260040161059390610ec8565b60405180910390fd5b60006105a782610c46565b90506004600082815260200190815260200160002060009054906101000a900460ff161561060a576040517f08c379a00000000000000000000000000000000000000000000000000000000081526004016106019061102c565b60405180910390fd5b6000600560008381526020019081526020016000208054905014610663576040517f08c379a000000000000000000000000000000000000000000000000000000000815260040161065a90611098565b60405180910390fd5b60016004600083815260200190815260200160002060006101000a81548160ff0219169083151502179055507f9a17239c74bdb04d3fc927723a115451c8d31d2088f3e81d5e05db7f6ce0a30d33826040516106c09291906110b8565b60405180910390a15050565b60008054906101000a900473ffffffffffffffffffffffffffffffffffffffff1681565b60025481565b6005602052816000526040600020818154811061071257600080fd5b906000526020600020016000915091509054906101000a900473ffffffffffffffffffffffffffffffffffffffff1681565b60008054906101000a900473ffffffffffffffffffffffffffffffffffffffff1673ffffffffffffffffffffffffffffffffffffffff163373ffffffffffffffffffffffffffffffffffffffff16146107d2576040517f08c379a00000000000000000000000000000000000000000000000000000000081526004016107c990610ec8565b60405180910390fd5b60006107dd82610c46565b90506004600082815260200190815260200160002060009054906101000a900460ff1661083f576040517f08c379a00000000000000000000000000000000000000000000000000000000081526004016108369061112d565b60405180910390fd5b60006004600083815260200190815260200160002060006101000a81548160ff0219169083151502179055507f9a17239c74bdb04d3fc927723a115451c8d31d2088f3e81d5e05db7f6ce0a30d338260405161089c9291906110b8565b60405180910390a15050565b60046020528060005260406000206000915054906101000a900460ff1681565b60006108d382610c46565b90506004600082815260200190815260200160002060009054906101000a900460ff1615610936576040517f08c379a000000000000000000000000000000000000000000000000000000000815260040161092d90611199565b60405180910390fd5b600354600560008381526020019081526020016000208054905010610990576040517f08c379a000000000000000000000000000000000000000000000000000000000815260040161098790611205565b60405180910390fd5b61099a8233610b66565b156109da576040517f08c379a00000000000000000000000000000000000000000000000000000000081526004016109d190611271565b60405180910390fd5b60056000828152602001908152602001600020339080600181540180825580915050600190039060005260206000200160009091909190916101000a81548173ffffffffffffffffffffffffffffffffffffffff021916908373ffffffffffffffffffffffffffffffffffffffff160217905550600160009054906101000a900473ffffffffffffffffffffffffffffffffffffffff1673ffffffffffffffffffffffffffffffffffffffff166323b872dd33306002546040518463ffffffff167c0100000000000000000000000000000000000000000000000000000000028152600401610acb93929190610f2a565b6020604051808303816000875af1158015610aea573d6000803e3d6000fd5b505050506040513d601f19601f82011682018060405250810190610b0e9190610f8d565b507f87bd3c3727dc384c6b57f4c6d12aa3c76a5fdb42a641218fdfd1844a21c852ea333083600254604051610b469493929190611291565b60405180910390a15050565b6000610b5e8284610b66565b905092915050565b600080600090506000610b7885610c46565b905060005b6005600083815260200190815260200160002080549050811015610c3a578473ffffffffffffffffffffffffffffffffffffffff16600560008481526020019081526020016000208281548110610bd757610bd66112d6565b5b9060005260206000200160009054906101000a900473ffffffffffffffffffffffffffffffffffffffff1673ffffffffffffffffffffffffffffffffffffffff161415610c275760019250610c3a565b8080610c3290611334565b915050610b7d565b50819250505092915050565b6000806201518083610c5891906113ac565b90508083610c6691906113dd565b915050919050565b600073ffffffffffffffffffffffffffffffffffffffff82169050919050565b6000610c9982610c6e565b9050919050565b610ca981610c8e565b82525050565b6000602082019050610cc46000830184610ca0565b92915050565b600080fd5b610cd881610c8e565b8114610ce357600080fd5b50565b600081359050610cf581610ccf565b92915050565b600060208284031215610d1157610d10610cca565b5b6000610d1f84828501610ce6565b91505092915050565b60008115159050919050565b610d3d81610d28565b82525050565b6000602082019050610d586000830184610d34565b92915050565b6000819050919050565b610d7181610d5e565b82525050565b6000602082019050610d8c6000830184610d68565b92915050565b610d9b81610d5e565b8114610da657600080fd5b50565b600081359050610db881610d92565b92915050565b600060208284031215610dd457610dd3610cca565b5b6000610de284828501610da9565b91505092915050565b60008060408385031215610e0257610e01610cca565b5b6000610e1085828601610da9565b9250506020610e2185828601610da9565b9150509250929050565b60008060408385031215610e4257610e41610cca565b5b6000610e5085828601610ce6565b9250506020610e6185828601610da9565b9150509250929050565b600082825260208201905092915050565b7f4552524f523a3a41555448000000000000000000000000000000000000000000600082015250565b6000610eb2600b83610e6b565b9150610ebd82610e7c565b602082019050919050565b60006020820190508181036000830152610ee181610ea5565b9050919050565b600081519050610ef781610d92565b92915050565b600060208284031215610f1357610f12610cca565b5b6000610f2184828501610ee8565b91505092915050565b6000606082019050610f3f6000830186610ca0565b610f4c6020830185610ca0565b610f596040830184610d68565b949350505050565b610f6a81610d28565b8114610f7557600080fd5b50565b600081519050610f8781610f61565b92915050565b600060208284031215610fa357610fa2610cca565b5b6000610fb184828501610f78565b91505092915050565b7f4552524f523a3a554e415641494c41424c455f4441595f414c52454144595f5260008201527f4547495354455245440000000000000000000000000000000000000000000000602082015250565b6000611016602983610e6b565b915061102182610fba565b604082019050919050565b6000602082019050818103600083015261104581611009565b9050919050565b7f4552524f523a3a4441595f414c52454144595f424f4f4b454400000000000000600082015250565b6000611082601983610e6b565b915061108d8261104c565b602082019050919050565b600060208201905081810360008301526110b181611075565b9050919050565b60006040820190506110cd6000830185610ca0565b6110da6020830184610d68565b9392505050565b7f4552524f523a3a4441595f414c52454144595f415641494c41424c4500000000600082015250565b6000611117601c83610e6b565b9150611122826110e1565b602082019050919050565b600060208201905081810360008301526111468161110a565b9050919050565b7f4552524f523a3a4441595f4e4f545f415641494c41424c450000000000000000600082015250565b6000611183601883610e6b565b915061118e8261114d565b602082019050919050565b600060208201905081810360008301526111b281611176565b9050919050565b7f4552524f523a3a4441595f414c52454144595f4d41585f434c49454e54530000600082015250565b60006111ef601e83610e6b565b91506111fa826111b9565b602082019050919050565b6000602082019050818103600083015261121e816111e2565b9050919050565b7f4552524f523a434c49454e545f414c52454144595f4558495354530000000000600082015250565b600061125b601b83610e6b565b915061126682611225565b602082019050919050565b6000602082019050818103600083015261128a8161124e565b9050919050565b60006080820190506112a66000830187610ca0565b6112b36020830186610ca0565b6112c06040830185610d68565b6112cd6060830184610d68565b95945050505050565b7f4e487b7100000000000000000000000000000000000000000000000000000000600052603260045260246000fd5b7f4e487b7100000000000000000000000000000000000000000000000000000000600052601160045260246000fd5b600061133f82610d5e565b91507fffffffffffffffffffffffffffffffffffffffffffffffffffffffffffffffff82141561137257611371611305565b5b600182019050919050565b7f4e487b7100000000000000000000000000000000000000000000000000000000600052601260045260246000fd5b60006113b782610d5e565b91506113c283610d5e565b9250826113d2576113d161137d565b5b828206905092915050565b60006113e882610d5e565b91506113f383610d5e565b92508282101561140657611405611305565b5b82820390509291505056fea26469706673582212207299930bd889d0e829749523d78f4e576b5cbaabeff9bc9748db6a67e027862964736f6c634300080a0033",
  "immutableReferences": {},
  "source": "// SPDX-License-Identifier: UNLICENSED\npragma solidity ^0.8.0;\n\nimport \"@openzeppelin/contracts/token/ERC20/IERC20.sol\";\n\ncontract Gym {\n    event LogWithdrawn(uint256 balance);\n    event LogPayment(\n        address client,\n        address owner,\n        uint256 day,\n        uint256 amount\n    );\n    event LogRegisteredUnavailableDay(address owner, uint256 day);\n    event LogUnregisteredUnavailableDay(address owner, uint256 day);\n\n    address public owner;\n    address public paymentToken;\n    uint256 public paymentTraining;\n    uint256 public maxClientsPerDay;\n\n    mapping(uint256 => bool) public unavailableDaysMap;\n    // start of day timestamp => clients that will have a training at that day\n    mapping(uint256 => address[]) public trainingDaysMap;\n\n    modifier onlyOwner() {\n        require(msg.sender == owner, \"ERROR::AUTH\");\n        _;\n    }\n\n    constructor(\n        address owner_,\n        address paymentToken_,\n        uint256 paymentTraining_,\n        uint256 maxClientsPerDay_\n    ) {\n        owner = owner_;\n        paymentToken = paymentToken_;\n        paymentTraining = paymentTraining_;\n        maxClientsPerDay = maxClientsPerDay_;\n    }\n\n    function registerUnavailableDay(uint256 dayTimestamp) external onlyOwner {\n        uint256 day = _getStartOfDay(dayTimestamp);\n\n        require(\n            !unavailableDaysMap[day],\n            \"ERROR::UNAVAILABLE_DAY_ALREADY_REGISTERED\"\n        );\n        require(trainingDaysMap[day].length == 0, \"ERROR::DAY_ALREADY_BOOKED\");\n\n        unavailableDaysMap[day] = true;\n\n        emit LogUnregisteredUnavailableDay(msg.sender, day);\n    }\n\n    function unregisterUnavailableDay(uint256 dayTimestamp) external onlyOwner {\n        uint256 day = _getStartOfDay(dayTimestamp);\n\n        require(!!unavailableDaysMap[day], \"ERROR::DAY_ALREADY_AVAILABLE\");\n\n        unavailableDaysMap[day] = false;\n\n        emit LogUnregisteredUnavailableDay(msg.sender, day);\n    }\n\n    function pay(uint256 dayTimestamp) external {\n        uint256 day = _getStartOfDay(dayTimestamp);\n\n        require(!unavailableDaysMap[day], \"ERROR::DAY_NOT_AVAILABLE\");\n        require(\n            trainingDaysMap[day].length < maxClientsPerDay,\n            \"ERROR::DAY_ALREADY_MAX_CLIENTS\"\n        );\n        require(\n            !_hasClientOnDate(dayTimestamp, msg.sender),\n            \"ERROR:CLIENT_ALREADY_EXISTS\"\n        );\n\n        trainingDaysMap[day].push(msg.sender);\n\n        IERC20(paymentToken).transferFrom(\n            msg.sender,\n            address(this),\n            paymentTraining\n        );\n\n        emit LogPayment(msg.sender, address(this), day, paymentTraining);\n    }\n\n    function withdraw() external onlyOwner {\n        uint256 balance = IERC20(paymentToken).balanceOf(address(this));\n        IERC20(paymentToken).transferFrom(address(this), owner, balance);\n        emit LogWithdrawn(balance);\n    }\n\n    function canTrainToday(address client) external view returns (bool) {\n        return _hasClientOnDate(block.timestamp, client);\n    }\n\n    function canTrainAtDate(address client, uint256 timestamp)\n        external\n        view\n        returns (bool)\n    {\n        return _hasClientOnDate(timestamp, client);\n    }\n\n    function _getStartOfDay(uint256 timestamp) private pure returns (uint256) {\n        uint256 secondsFromDayStart = timestamp % (60 * 60 * 24);\n        return timestamp - secondsFromDayStart;\n    }\n\n    function _hasClientOnDate(uint256 timestamp, address client)\n        private\n        view\n        returns (bool)\n    {\n        bool canTrain = false;\n\n        uint256 day = _getStartOfDay(timestamp);\n        for (uint256 i = 0; i < trainingDaysMap[day].length; i++) {\n            if (trainingDaysMap[day][i] == client) {\n                canTrain = true;\n                break;\n            }\n        }\n\n        return canTrain;\n    }\n}\n",
  "sourcePath": "/Users/a.maklakov/Documents/personal/crypto/contracts/Gym.sol",
  "compiler": {
    "name": "solc",
    "version": "0.8.10+commit.fc410830.Emscripten.clang"
  },
  "schemaVersion": "3.4.4",
  "updatedAt": "2021-12-26T18:47:03.904Z",
  "networkType": "ethereum",
  "devdoc": {
    "kind": "dev",
    "methods": {},
    "version": 1
  },
  "userdoc": {
    "kind": "user",
    "methods": {},
    "version": 1
  }
}